{
  "_format": "hh-sol-artifact-1",
  "contractName": "Elections",
  "sourceName": "contracts/Election.sol",
  "abi": [
    {
      "inputs": [],
      "stateMutability": "nonpayable",
      "type": "constructor"
    },
    {
      "anonymous": false,
      "inputs": [
        {
          "indexed": false,
          "internalType": "uint256",
          "name": "electionId",
          "type": "uint256"
        },
        {
          "indexed": false,
          "internalType": "address",
          "name": "candidate",
          "type": "address"
        }
      ],
      "name": "CandidateAdded",
      "type": "event"
    },
    {
      "anonymous": false,
      "inputs": [
        {
          "indexed": false,
          "internalType": "uint256",
          "name": "electionId",
          "type": "uint256"
        },
        {
          "indexed": false,
          "internalType": "string",
          "name": "name",
          "type": "string"
        }
      ],
      "name": "ElectionCreated",
      "type": "event"
    },
    {
      "anonymous": false,
      "inputs": [
        {
          "indexed": false,
          "internalType": "uint256",
          "name": "electionId",
          "type": "uint256"
        }
      ],
      "name": "ElectionEnded",
      "type": "event"
    },
    {
      "anonymous": false,
      "inputs": [
        {
          "indexed": false,
          "internalType": "uint256",
          "name": "electionId",
          "type": "uint256"
        },
        {
          "indexed": false,
          "internalType": "address",
          "name": "winner",
          "type": "address"
        },
        {
          "indexed": false,
          "internalType": "uint256",
          "name": "votes",
          "type": "uint256"
        }
      ],
      "name": "ElectionResult",
      "type": "event"
    },
    {
      "anonymous": false,
      "inputs": [
        {
          "indexed": false,
          "internalType": "uint256",
          "name": "electionId",
          "type": "uint256"
        }
      ],
      "name": "ElectionStarted",
      "type": "event"
    },
    {
      "anonymous": false,
      "inputs": [
        {
          "indexed": false,
          "internalType": "uint256",
          "name": "electionId",
          "type": "uint256"
        },
        {
          "indexed": false,
          "internalType": "address",
          "name": "voter",
          "type": "address"
        },
        {
          "indexed": false,
          "internalType": "address",
          "name": "candidate",
          "type": "address"
        }
      ],
      "name": "Voted",
      "type": "event"
    },
    {
      "inputs": [
        {
          "internalType": "uint256",
          "name": "electionId",
          "type": "uint256"
        },
        {
          "internalType": "address",
          "name": "candidate",
          "type": "address"
        }
      ],
      "name": "addCandidate",
      "outputs": [],
      "stateMutability": "nonpayable",
      "type": "function"
    },
    {
      "inputs": [],
      "name": "admin",
      "outputs": [
        {
          "internalType": "address",
          "name": "",
          "type": "address"
        }
      ],
      "stateMutability": "view",
      "type": "function"
    },
    {
      "inputs": [
        {
          "internalType": "uint256",
          "name": "electionId",
          "type": "uint256"
        }
      ],
      "name": "calculateResult",
      "outputs": [],
      "stateMutability": "nonpayable",
      "type": "function"
    },
    {
      "inputs": [
        {
          "internalType": "string",
          "name": "name",
          "type": "string"
        },
        {
          "internalType": "string",
          "name": "description",
          "type": "string"
        },
        {
          "internalType": "uint256",
          "name": "startTime",
          "type": "uint256"
        },
        {
          "internalType": "uint256",
          "name": "endTime",
          "type": "uint256"
        }
      ],
      "name": "createElection",
      "outputs": [],
      "stateMutability": "nonpayable",
      "type": "function"
    },
    {
      "inputs": [],
      "name": "electionCount",
      "outputs": [
        {
          "internalType": "uint256",
          "name": "",
          "type": "uint256"
        }
      ],
      "stateMutability": "view",
      "type": "function"
    },
    {
      "inputs": [
        {
          "internalType": "uint256",
          "name": "",
          "type": "uint256"
        }
      ],
      "name": "elections",
      "outputs": [
        {
          "internalType": "uint256",
          "name": "electionId",
          "type": "uint256"
        },
        {
          "internalType": "string",
          "name": "name",
          "type": "string"
        },
        {
          "internalType": "string",
          "name": "description",
          "type": "string"
        },
        {
          "internalType": "uint256",
          "name": "startTime",
          "type": "uint256"
        },
        {
          "internalType": "uint256",
          "name": "endTime",
          "type": "uint256"
        },
        {
          "internalType": "bool",
          "name": "isLive",
          "type": "bool"
        }
      ],
      "stateMutability": "view",
      "type": "function"
    },
    {
      "inputs": [
        {
          "internalType": "uint256",
          "name": "electionId",
          "type": "uint256"
        }
      ],
      "name": "endElection",
      "outputs": [],
      "stateMutability": "nonpayable",
      "type": "function"
    },
    {
      "inputs": [
        {
          "internalType": "uint256",
          "name": "electionId",
          "type": "uint256"
        }
      ],
      "name": "startElection",
      "outputs": [],
      "stateMutability": "nonpayable",
      "type": "function"
    },
    {
      "inputs": [
        {
          "internalType": "uint256",
          "name": "electionId",
          "type": "uint256"
        },
        {
          "internalType": "address",
          "name": "candidate",
          "type": "address"
        }
      ],
      "name": "vote",
      "outputs": [],
      "stateMutability": "nonpayable",
      "type": "function"
    },
    {
      "inputs": [
        {
          "internalType": "uint256",
          "name": "",
          "type": "uint256"
        },
        {
          "internalType": "address",
          "name": "",
          "type": "address"
        }
      ],
      "name": "voters",
      "outputs": [
        {
          "internalType": "bool",
          "name": "",
          "type": "bool"
        }
      ],
      "stateMutability": "view",
      "type": "function"
    },
    {
      "inputs": [
        {
          "internalType": "uint256",
          "name": "",
          "type": "uint256"
        },
        {
          "internalType": "address",
          "name": "",
          "type": "address"
        }
      ],
      "name": "votes",
      "outputs": [
        {
          "internalType": "uint256",
          "name": "",
          "type": "uint256"
        }
      ],
      "stateMutability": "view",
      "type": "function"
    }
  ],
  "bytecode": "0x608060405234801561001057600080fd5b50336000806101000a81548173ffffffffffffffffffffffffffffffffffffffff021916908373ffffffffffffffffffffffffffffffffffffffff1602179055506000600181905550612068806100686000396000f3fe608060405234801561001057600080fd5b50600436106100a95760003560e01c80638c51fedb116100715780638c51fedb14610153578063997d28301461016f5780639c98bcbb1461018d5780639e319063146101a9578063d23254b4146101d9578063f851a44014610209576100a9565b806302d947ef146100ae57806333c57ccd146100ca5780635e6fef01146100e65780636d32dc4b1461011b5780637ad36e8414610137575b600080fd5b6100c860048036038101906100c3919061167b565b610227565b005b6100e460048036038101906100df919061167b565b6105b8565b005b61010060048036038101906100fb9190611652565b6107bd565b60405161011296959493929190611d75565b60405180910390f35b61013560048036038101906101309190611652565b610916565b005b610151600480360381019061014c91906115bf565b610b1d565b005b61016d60048036038101906101689190611652565b610ddc565b005b61017761117c565b6040516101849190611c93565b60405180910390f35b6101a760048036038101906101a29190611652565b611182565b005b6101c360048036038101906101be919061167b565b611388565b6040516101d09190611ab8565b60405180910390f35b6101f360048036038101906101ee919061167b565b6113b7565b6040516102009190611c93565b60405180910390f35b6102116113dc565b60405161021e9190611a9d565b60405180910390f35b8160008111801561023a57506001548111155b610279576040517f08c379a000000000000000000000000000000000000000000000000000000000815260040161027090611b73565b60405180910390fd5b6002600084815260200190815260200160002060050160009054906101000a900460ff166102dc576040517f08c379a00000000000000000000000000000000000000000000000000000000081526004016102d390611b13565b60405180910390fd5b6003600084815260200190815260200160002060003373ffffffffffffffffffffffffffffffffffffffff1673ffffffffffffffffffffffffffffffffffffffff16815260200190815260200160002060009054906101000a900460ff161561037a576040517f08c379a000000000000000000000000000000000000000000000000000000000815260040161037190611c53565b60405180910390fd5b6000805b6002600086815260200190815260200160002060060180549050811015610467578373ffffffffffffffffffffffffffffffffffffffff16600260008781526020019081526020016000206006018281548110610404577f4e487b7100000000000000000000000000000000000000000000000000000000600052603260045260246000fd5b9060005260206000200160009054906101000a900473ffffffffffffffffffffffffffffffffffffffff1673ffffffffffffffffffffffffffffffffffffffff1614156104545760019150610467565b808061045f90611f1d565b91505061037e565b50806104a8576040517f08c379a000000000000000000000000000000000000000000000000000000000815260040161049f90611b53565b60405180910390fd5b60016003600086815260200190815260200160002060003373ffffffffffffffffffffffffffffffffffffffff1673ffffffffffffffffffffffffffffffffffffffff16815260200190815260200160002060006101000a81548160ff0219169083151502179055506004600085815260200190815260200160002060008473ffffffffffffffffffffffffffffffffffffffff1673ffffffffffffffffffffffffffffffffffffffff168152602001908152602001600020600081548092919061057290611f1d565b91905055507ff6c8f1f54b2f54fb963820203fdef5b9aefb56ae2c4dd8b6133e151791a07f368433856040516105aa93929190611cd7565b60405180910390a150505050565b60008054906101000a900473ffffffffffffffffffffffffffffffffffffffff1673ffffffffffffffffffffffffffffffffffffffff163373ffffffffffffffffffffffffffffffffffffffff1614610646576040517f08c379a000000000000000000000000000000000000000000000000000000000815260040161063d90611b33565b60405180910390fd5b8160008111801561065957506001548111155b610698576040517f08c379a000000000000000000000000000000000000000000000000000000000815260040161068f90611b73565b60405180910390fd5b600073ffffffffffffffffffffffffffffffffffffffff168273ffffffffffffffffffffffffffffffffffffffff161415610708576040517f08c379a00000000000000000000000000000000000000000000000000000000081526004016106ff90611c13565b60405180910390fd5b60026000848152602001908152602001600020600601829080600181540180825580915050600190039060005260206000200160009091909190916101000a81548173ffffffffffffffffffffffffffffffffffffffff021916908373ffffffffffffffffffffffffffffffffffffffff1602179055507fae67715e53b8e1ee028f0b9cddbc208be7d0889701d1ba0ec4414baeaf37b2eb83836040516107b0929190611cae565b60405180910390a1505050565b60026020528060005260406000206000915090508060000154908060010180546107e690611eeb565b80601f016020809104026020016040519081016040528092919081815260200182805461081290611eeb565b801561085f5780601f106108345761010080835404028352916020019161085f565b820191906000526020600020905b81548152906001019060200180831161084257829003601f168201915b50505050509080600201805461087490611eeb565b80601f01602080910402602001604051908101604052809291908181526020018280546108a090611eeb565b80156108ed5780601f106108c2576101008083540402835291602001916108ed565b820191906000526020600020905b8154815290600101906020018083116108d057829003601f168201915b5050505050908060030154908060040154908060050160009054906101000a900460ff16905086565b60008054906101000a900473ffffffffffffffffffffffffffffffffffffffff1673ffffffffffffffffffffffffffffffffffffffff163373ffffffffffffffffffffffffffffffffffffffff16146109a4576040517f08c379a000000000000000000000000000000000000000000000000000000000815260040161099b90611b33565b60405180910390fd5b806000811180156109b757506001548111155b6109f6576040517f08c379a00000000000000000000000000000000000000000000000000000000081526004016109ed90611b73565b60405180910390fd5b6002600083815260200190815260200160002060030154421015610a4f576040517f08c379a0000000000000000000000000000000000000000000000000000000008152600401610a4690611bf3565b60405180910390fd5b6002600083815260200190815260200160002060050160009054906101000a900460ff1615610ab3576040517f08c379a0000000000000000000000000000000000000000000000000000000008152600401610aaa90611c73565b60405180910390fd5b60016002600084815260200190815260200160002060050160006101000a81548160ff0219169083151502179055507f159eee87222a0489c529f2153c26ad65d718f2cc33ebaa8d399d1dd5b39facaa82604051610b119190611c93565b60405180910390a15050565b60008054906101000a900473ffffffffffffffffffffffffffffffffffffffff1673ffffffffffffffffffffffffffffffffffffffff163373ffffffffffffffffffffffffffffffffffffffff1614610bab576040517f08c379a0000000000000000000000000000000000000000000000000000000008152600401610ba290611b33565b60405180910390fd5b808210610bed576040517f08c379a0000000000000000000000000000000000000000000000000000000008152600401610be490611bb3565b60405180910390fd5b428211610c2f576040517f08c379a0000000000000000000000000000000000000000000000000000000008152600401610c2690611bd3565b60405180910390fd5b60016000815480929190610c4290611f1d565b91905055506040518060e001604052806001548152602001858152602001848152602001838152602001828152602001600015158152602001600067ffffffffffffffff811115610cbc577f4e487b7100000000000000000000000000000000000000000000000000000000600052604160045260246000fd5b604051908082528060200260200182016040528015610cea5781602001602082028036833780820191505090505b50815250600260006001548152602001908152602001600020600082015181600001556020820151816001019080519060200190610d29929190611400565b506040820151816002019080519060200190610d46929190611400565b50606082015181600301556080820151816004015560a08201518160050160006101000a81548160ff02191690831515021790555060c0820151816006019080519060200190610d97929190611486565b509050507f52be7c4e77b4de76b7607d621492061fe13b58597e72dfb5e51ab8f6187ed14160015485604051610dce929190611d45565b60405180910390a150505050565b60008054906101000a900473ffffffffffffffffffffffffffffffffffffffff1673ffffffffffffffffffffffffffffffffffffffff163373ffffffffffffffffffffffffffffffffffffffff1614610e6a576040517f08c379a0000000000000000000000000000000000000000000000000000000008152600401610e6190611b33565b60405180910390fd5b80600081118015610e7d57506001548111155b610ebc576040517f08c379a0000000000000000000000000000000000000000000000000000000008152600401610eb390611b73565b60405180910390fd5b6002600083815260200190815260200160002060050160009054906101000a900460ff1615610f20576040517f08c379a0000000000000000000000000000000000000000000000000000000008152600401610f1790611b93565b60405180910390fd5b6005600083815260200190815260200160002060009054906101000a900460ff1615610f81576040517f08c379a0000000000000000000000000000000000000000000000000000000008152600401610f7890611ad3565b60405180910390fd5b60008060005b600260008681526020019081526020016000206006018054905081101561109e576000600260008781526020019081526020016000206006018281548110610ff8577f4e487b7100000000000000000000000000000000000000000000000000000000600052603260045260246000fd5b9060005260206000200160009054906101000a900473ffffffffffffffffffffffffffffffffffffffff16905060006004600088815260200190815260200160002060008373ffffffffffffffffffffffffffffffffffffffff1673ffffffffffffffffffffffffffffffffffffffff16815260200190815260200160002054905083811115611089578093508194505b5050808061109690611f1d565b915050610f87565b50600073ffffffffffffffffffffffffffffffffffffffff168273ffffffffffffffffffffffffffffffffffffffff16141561110f576040517f08c379a000000000000000000000000000000000000000000000000000000000815260040161110690611af3565b60405180910390fd5b60016005600086815260200190815260200160002060006101000a81548160ff0219169083151502179055507fb83511edea4bf936c3610ed203af8c48ad562aa5fb326bd9b226e48e46958b7784838360405161116e93929190611d0e565b60405180910390a150505050565b60015481565b60008054906101000a900473ffffffffffffffffffffffffffffffffffffffff1673ffffffffffffffffffffffffffffffffffffffff163373ffffffffffffffffffffffffffffffffffffffff1614611210576040517f08c379a000000000000000000000000000000000000000000000000000000000815260040161120790611b33565b60405180910390fd5b8060008111801561122357506001548111155b611262576040517f08c379a000000000000000000000000000000000000000000000000000000000815260040161125990611b73565b60405180910390fd5b60026000838152602001908152602001600020600401544210156112bb576040517f08c379a00000000000000000000000000000000000000000000000000000000081526004016112b290611c33565b60405180910390fd5b6002600083815260200190815260200160002060050160009054906101000a900460ff1661131e576040517f08c379a000000000000000000000000000000000000000000000000000000000815260040161131590611b13565b60405180910390fd5b60006002600084815260200190815260200160002060050160006101000a81548160ff0219169083151502179055507f562cd572b2ba3b666cd989fc4ca98419ec81e75f04528df9d9d76fdb7807ee718260405161137c9190611c93565b60405180910390a15050565b60036020528160005260406000206020528060005260406000206000915091509054906101000a900460ff1681565b6004602052816000526040600020602052806000526040600020600091509150505481565b60008054906101000a900473ffffffffffffffffffffffffffffffffffffffff1681565b82805461140c90611eeb565b90600052602060002090601f01602090048101928261142e5760008555611475565b82601f1061144757805160ff1916838001178555611475565b82800160010185558215611475579182015b82811115611474578251825591602001919060010190611459565b5b5090506114829190611510565b5090565b8280548282559060005260206000209081019282156114ff579160200282015b828111156114fe5782518260006101000a81548173ffffffffffffffffffffffffffffffffffffffff021916908373ffffffffffffffffffffffffffffffffffffffff160217905550916020019190600101906114a6565b5b50905061150c9190611510565b5090565b5b80821115611529576000816000905550600101611511565b5090565b600061154061153b84611e15565b611de4565b90508281526020810184848401111561155857600080fd5b611563848285611ea9565b509392505050565b60008135905061157a81612004565b92915050565b600082601f83011261159157600080fd5b81356115a184826020860161152d565b91505092915050565b6000813590506115b98161201b565b92915050565b600080600080608085870312156115d557600080fd5b600085013567ffffffffffffffff8111156115ef57600080fd5b6115fb87828801611580565b945050602085013567ffffffffffffffff81111561161857600080fd5b61162487828801611580565b9350506040611635878288016115aa565b9250506060611646878288016115aa565b91505092959194509250565b60006020828403121561166457600080fd5b6000611672848285016115aa565b91505092915050565b6000806040838503121561168e57600080fd5b600061169c858286016115aa565b92505060206116ad8582860161156b565b9150509250929050565b6116c081611e61565b82525050565b6116cf81611e73565b82525050565b60006116e082611e45565b6116ea8185611e50565b93506116fa818560208601611eb8565b61170381611ff3565b840191505092915050565b600061171b601a83611e50565b91507f526573756c747320616c72656164792063616c63756c617465640000000000006000830152602082019050919050565b600061175b600d83611e50565b91507f4e6f20766f7465732063617374000000000000000000000000000000000000006000830152602082019050919050565b600061179b601483611e50565b91507f456c656374696f6e206973206e6f74206c6976650000000000000000000000006000830152602082019050919050565b60006117db601883611e50565b91507f4f6e6c792061646d696e2063616e2063616c6c207468697300000000000000006000830152602082019050919050565b600061181b601183611e50565b91507f496e76616c69642063616e6469646174650000000000000000000000000000006000830152602082019050919050565b600061185b601783611e50565b91507f456c656374696f6e20646f6573206e6f742065786973740000000000000000006000830152602082019050919050565b600061189b601683611e50565b91507f456c656374696f6e206973207374696c6c206c697665000000000000000000006000830152602082019050919050565b60006118db601b83611e50565b91507f496e76616c696420737461727420616e6420656e642074696d657300000000006000830152602082019050919050565b600061191b602083611e50565b91507f53746172742074696d65206d75737420626520696e20746865206675747572656000830152602082019050919050565b600061195b601c83611e50565b91507f456c656374696f6e20686173206e6f74207374617274656420796574000000006000830152602082019050919050565b600061199b601983611e50565b91507f496e76616c69642063616e6469646174652061646472657373000000000000006000830152602082019050919050565b60006119db601983611e50565b91507f456c656374696f6e206973207374696c6c206f6e676f696e67000000000000006000830152602082019050919050565b6000611a1b601683611e50565b91507f596f75206861766520616c726561647920766f746564000000000000000000006000830152602082019050919050565b6000611a5b601883611e50565b91507f456c656374696f6e20697320616c7265616479206c69766500000000000000006000830152602082019050919050565b611a9781611e9f565b82525050565b6000602082019050611ab260008301846116b7565b92915050565b6000602082019050611acd60008301846116c6565b92915050565b60006020820190508181036000830152611aec8161170e565b9050919050565b60006020820190508181036000830152611b0c8161174e565b9050919050565b60006020820190508181036000830152611b2c8161178e565b9050919050565b60006020820190508181036000830152611b4c816117ce565b9050919050565b60006020820190508181036000830152611b6c8161180e565b9050919050565b60006020820190508181036000830152611b8c8161184e565b9050919050565b60006020820190508181036000830152611bac8161188e565b9050919050565b60006020820190508181036000830152611bcc816118ce565b9050919050565b60006020820190508181036000830152611bec8161190e565b9050919050565b60006020820190508181036000830152611c0c8161194e565b9050919050565b60006020820190508181036000830152611c2c8161198e565b9050919050565b60006020820190508181036000830152611c4c816119ce565b9050919050565b60006020820190508181036000830152611c6c81611a0e565b9050919050565b60006020820190508181036000830152611c8c81611a4e565b9050919050565b6000602082019050611ca86000830184611a8e565b92915050565b6000604082019050611cc36000830185611a8e565b611cd060208301846116b7565b9392505050565b6000606082019050611cec6000830186611a8e565b611cf960208301856116b7565b611d0660408301846116b7565b949350505050565b6000606082019050611d236000830186611a8e565b611d3060208301856116b7565b611d3d6040830184611a8e565b949350505050565b6000604082019050611d5a6000830185611a8e565b8181036020830152611d6c81846116d5565b90509392505050565b600060c082019050611d8a6000830189611a8e565b8181036020830152611d9c81886116d5565b90508181036040830152611db081876116d5565b9050611dbf6060830186611a8e565b611dcc6080830185611a8e565b611dd960a08301846116c6565b979650505050505050565b6000604051905081810181811067ffffffffffffffff82111715611e0b57611e0a611fc4565b5b8060405250919050565b600067ffffffffffffffff821115611e3057611e2f611fc4565b5b601f19601f8301169050602081019050919050565b600081519050919050565b600082825260208201905092915050565b6000611e6c82611e7f565b9050919050565b60008115159050919050565b600073ffffffffffffffffffffffffffffffffffffffff82169050919050565b6000819050919050565b82818337600083830152505050565b60005b83811015611ed6578082015181840152602081019050611ebb565b83811115611ee5576000848401525b50505050565b60006002820490506001821680611f0357607f821691505b60208210811415611f1757611f16611f95565b5b50919050565b6000611f2882611e9f565b91507fffffffffffffffffffffffffffffffffffffffffffffffffffffffffffffffff821415611f5b57611f5a611f66565b5b600182019050919050565b7f4e487b7100000000000000000000000000000000000000000000000000000000600052601160045260246000fd5b7f4e487b7100000000000000000000000000000000000000000000000000000000600052602260045260246000fd5b7f4e487b7100000000000000000000000000000000000000000000000000000000600052604160045260246000fd5b6000601f19601f8301169050919050565b61200d81611e61565b811461201857600080fd5b50565b61202481611e9f565b811461202f57600080fd5b5056fea2646970667358221220c1f1c53ab942f63ee5e60e052649b233bef55c995592a5abc630511050d5d69864736f6c63430008000033",
  "linkReferences": {},
  "deployedLinkReferences": {}
}